:020000040800F2
:10000000F0160020D9010008AB140008A113000865
:10001000A914000843030008B915000800000000F7
:100020000000000000000000000000000D150008A6
:10003000B9030008000000000B1500080F150008A8
:10004000F3010008F3010008F3010008F3010008C0
:10005000F3010008F3010008F3010008F3010008B0
:10006000F3010008F3010008F3010008F3010008A0
:10007000F3010008F3010008F3010008F301000890
:10008000F3010008F3010008F3010008F301000880
:1000900045030008F3010008F3010008F30100081C
:1000A000F3010008F3010008F3010008F301000860
:1000B000F3010008F3010008F3010008F301000850
:1000C000F3010008F3010008F3010008F301000840
:1000D000F3010008F3010008F3010008F301000830
:1000E000F3010008F3010008F3010008F301000820
:1000F000F3010008F3010008F3010008F301000810
:10010000F3010008F3010008F3010008F3010008FF
:10011000F3010008F3010008F3010008F3010008EF
:10012000F3010008F3010008F3010008F3010008DF
:10013000F30100080000000000000000F3010008C7
:10014000F3010008F3010008F3010008F3010008BF
:10015000F3010008F3010008F3010008F3010008AF
:10016000F3010008F3010008F3010008F30100089F
:10017000F3010008F3010008F3010008000000008B
:1001800000000000F3010008000000000000000073
:10019000F30100080000000000000000F301000867
:1001A000000000000000000000000000F301000853
:1001B000F3010008F3010008F3010008F30100084F
:1001C000F3010008DFF80CD000F08CF8004800477D
:1001D000691D0008F01600200648804706480047C1
:1001E000FEE7FEE7FEE7FEE7FEE7FEE7FEE7FEE7E7
:1001F000FEE7FEE79D150008C50100082DE9F05F48
:100200000546002092469B46884606468146402485
:100210001BE0284641464746224600F053F8534625
:100220005A46C01A914110D311461846224600F092
:100230003AF82D1A67EB01084F46224601200021AB
:1002400000F031F817EB00094E41201EA4F1010423
:10025000DFDC484631462A464346BDE8F09F40EA87
:1002600001039B0703D009E008C9121F08C0042A34
:10027000FAD203E011F8013B00F8013B521EF9D21B
:100280007047D2B201E000F8012B491EFBD2704743
:100290000022F6E710B513460A4604461946FFF752
:1002A000F0FF204610BD202A04DB203A00FA02F1BC
:1002B000002070479140C2F1200320FA03F3194354
:1002C00090407047202A04DB203A21FA02F00021F6
:1002D000704721FA02F3D040C2F120029140084356
:1002E00019467047064C074D06E0E06840F00103F0
:1002F00094E8070098471034AC42F6D3FFF766FF46
:10030000B0250008D025000830B58C1810F8012B56
:1003100012F00F0301D110F8013B120906D110F8B9
:10032000012B03E010F8015B01F8015B5B1EF9D1C2
:1003300001E001F8013B521EFBD1A142E6D30020AF
:1003400030BDFEE7014800F0AAB9000068020020B5
:1003500008488022A0F10C01A1F1800308600A8105
:1003600000208880C8808C390B600A818880C88012
:1003700070470000B408002070B50E4C15460646C4
:10038000216000216160A160C4E9031301232146BB
:1003900000F026F860B102232A462146304600F0DC
:1003A0001FF828B104232A462146304600F018F8E9
:1003B000002070BD040800207047704790F820208E
:1003C000012A07D0022A05D0416A41F48021416206
:1003D00001207047006842690A434261002070476B
:1003E000F0B590F820500468A468012D05D0022DC6
:1003F00003D0416A41F4802153E014F0406F01D1F1
:10040000E5004BD5C4F30164022C03D9416A41F4E1
:10041000000146E00125A5401D608D684FF4C073C2
:100420009DB1CE6835434E6845EAC605066803EBC4
:100430000417F5514FF4C275076805EB04150E69F2
:100440007E51097D012905D009E00E88CD6845EA75
:100450004655EBE701684E5946F480764E511179C6
:10046000D2F805504FF4C67641EA0525016806EB3F
:1004700004168D511178D2F801204FF4C47541EA69
:100480000221026805EB04155151006803EB0411C9
:10049000425842F0010242500020F0BD416A41F44E
:1004A000001141620120F0BD10B590F82020012A12
:1004B00007D0022A05D0416A41F48021416201201F
:1004C00010BD3B48D0F8002242F00102C0F80022E3
:1004D000D0F8002222F47C52C0F80022D0F800228A
:1004E0004B6A42EA0322C0F800220A7D02F01F0391
:1004F00001229A40D0F81C329343C0F81C32CB69D9
:10050000B3B9D0F80C329343C0F80C328C894B68E5
:1005100064F31F434C6900EBC404C4F840320C89F7
:100520000B6864F31F434C6900EBC404C4F8443205
:10053000CB69012B16D1D0F80C321343C0F80C3222
:100540000C884B6864F31F434C6900EBC404C4F887
:1005500040320C89CB6864F31F434C6900EBC40440
:10056000C4F844328B69002BD0F804320ED0134308
:10057000C0F804320B69002BD0F8143208D01343B2
:10058000C0F81432096A012904D008E09343EFE768
:100590009343F5E7D0F81C121143C0F81C12D0F8B1
:1005A000001221F00101C0F80012002010BD00006F
:1005B00000640040704730B590F82040012C05D011
:1005C000022C03D0416A41F480215DE004680029D7
:1005D00055D02469A40754D04FF4D874056804EBAF
:1005E00001142D5915F00405956005682D594ED05C
:1005F000ED08556005682C5904F00204D4604FF4EE
:10060000DA74056804EB01142D5905F00F05156126
:1006100005682D59C5F30725956105682C59240CEB
:1006200054614FF4DC72046802EB0112A4581C7090
:100630000468A458240A5C700468A458240C9C70B4
:100640000468A258120EDA704FF4DE72046802EBEE
:100650000112A4581C710468A458240A5C7104682F
:10066000A458240C9C710468A258120EDA71006818
:1006700081B1016941F020010161002030BDE468D1
:10068000A8E7416A41F400114162012030BD6D0DBF
:100690001560AFE7C16841F02001C160EDE72DE9C9
:1006A000F05F0546006800244669D0F8049087682A
:1006B000D0F80CB0D0F810A0D0F81880F10748D0CE
:1006C000F90714D001218160B80703D5284600F04E
:1006D00044FA0CE0780702D54FF4006407E03807CD
:1006E00002D54FF4805402E0284600F035FAF805B0
:1006F00016D529684FF480708860B80503D5284660
:1007000000F02DFA0CE0780502D544F4005407E01F
:10071000380502D544F4804402E0284600F01EFA71
:10072000F80316D529684FF480308860B80303D5E4
:10073000284600F016FA0CE0780302D544F4004491
:1007400007E0380302D544F4803402E0284600F084
:1007500007FA300707D55FEACB6004D52968102077
:1007600044F40074C86070074FF0080707D55FEACB
:100770000B7004D52868C760284600F097F9B007C9
:1007800006D52868C068800702D0284600F090F996
:10079000700607D55FEACA6004D52968102044F4C2
:1007A00080640861B00607D55FEA0A7004D528683E
:1007B0000761284600F0A0F9F00606D52868006910
:1007C000800702D0284600F098F9B00308D55FEA08
:1007D000C96005D5296810204860284600F08EF9C8
:1007E000F00307D55FEA097004D5286847602846FA
:1007F00000F0B8F9300446D55FEA497040D5F005FD
:1008000004D55FEAC87001D044F00104B00504D5F6
:100810005FEA887001D544F00204700504D55FEAF0
:10082000487001D544F00404300529D518F0700F44
:1008300026D008F07000402815D006DC102809D01A
:1008400020280AD0302816D10AE050280ED060287F
:1008500011D10EE044F008040DE044F010040AE069
:1008600044F0200407E044F0400404E044F0800435
:1008700001E044F480742868816921F0700181618D
:10088000296804204860002C05D0686A204368620B
:100890002846FFF78FFEBDE8F09F70B5040003D037
:1008A00094F8200010B104E0012070BD204600F053
:1008B00081F82068016821F00201016000F034FA3B
:1008C0000546052604E000F02FFA401B0A2811D83F
:1008D000206840688007F6D42068016841F0010173
:1008E000016000F021FA05460BE000F01DFA401B04
:1008F0000A2806D9606A40F40030606284F82060FB
:10090000D2E720684068C007EFD0207E0128206829
:1009100001683DD021F080010160607E01282068DF
:10092000016838D021F040010160A07E01282068D4
:10093000016833D021F020010160E07E01282068A9
:1009400001682ED041F010010160207F012820684D
:10095000016829D021F008010160607F012820682A
:10096000016824D021F004010160D4E902010843A8
:10097000D4E90412114308436168491E0843216801
:10098000C86100206062012084F82000002070BD52
:1009900041F08001C0E741F04001C5E741F020018E
:1009A000CAE721F01001CFE741F00801D4E741F098
:1009B0000401D9E72DE9F04387B0044614216846C5
:1009C000FFF766FC354B3648DFF8CC801968D4F861
:1009D00000C0334A022503260927DFF8C8901030EB
:1009E0000024491CC44528D11960012907D1016898
:1009F00041F000710160006800F00070059010681F
:100A000040F002001060106802AB00F00200059098
:100A10004FF44070CDE9000583E8D00069464846B0
:100A200000F0A2F800221146142000F0EBF9142087
:100A300000F0DAF907B0BDE8F083DFF86C80C44558
:100A4000F8D1D0F800C04CF0806CC0F800C0D0F8ED
:100A500000C001290CF0806CCDF814C0196007D1DA
:100A6000016841F000710160006800F000700590BD
:100A7000106840F002001060106802AB00F0020045
:100A800005904FF44050CDE9000583E8D000694659
:100A9000484600F069F8CDE70064004000000020FF
:100AA00030380240000402400068004070470000F7
:100AB00070B50D49884216D10C4B0D4A0021FFF745
:100AC0007AFD0A4A0B480021C5880468535C491C1A
:100AD0006355C38804895B1CB3FBF4F504FB153331
:100AE000C3800829F0DB70BD680200201E020020D0
:100AF000340900201C080020704770477047000030
:100B000070B5044690F82000012804D0606A40F4D3
:100B10000020606218E0022084F82000206801684C
:100B200021F00101016000F0FFF805460EE000BF72
:100B300000F0FAF8401B0A2808D9606A40F4003037
:100B40006062052084F82000012070BD20684068A4
:100B5000C007EDD1606270BD704770477047704745
:100B600070477047704700002DE9F84F00224FF0A2
:100B7000010803254FF00F0E0B6808FA02F423401A
:100B8000A3426ED14E68012E05D0022E03D0112E45
:100B900001D0122E12D186684FEA420C05FA0CF7EA
:100BA000BE43CF6807FA0CF7374387604668A64311
:100BB0000C79C4F30014944034434460C668570071
:100BC00005FA07FC8C6826EA0C06BC403443C46076
:100BD0004C68022C01D0122C13D1D40800EB8404F1
:100BE000A346D4F8209054074FEAD46A0EFA0AF6C6
:100BF00029EA06090E6906FA0AF646EA0906CBF85A
:100C0000206006680C7926EA0C0604F00304BC4058
:100C1000344304604C68E40060D5334C266846F4E5
:100C200080462660246822F0030604F48044009481
:100C30002E4C3444A446D4F808489607370F0EFAD1
:100C400007F6B4432A4EB04201D100261FE0294ED8
:100C5000B04201D101261AE0274EB04202D102264D
:100C600015E03BE0254EB04201D103260FE0244EB3
:100C7000B04201D104260AE0224EB04201D105263D
:100C800005E0214EB04201D1062600E00726BE4015
:100C90002643CCF808681D4E34684F689C43FF0318
:100CA00000D51C433460194E361D34684F689C4390
:100CB000BF0300D51C433460144E083634684F68B7
:100CC0009C43FF0200D51C433460104E0C36346840
:100CD0004F689C43BF0200D51C433460521C102A4D
:100CE000FFF44AAFBDE8F88F4438024000300140BD
:100CF000000002400004024000080240000C0240D4
:100D0000001002400014024000180240003C014064
:100D1000426931EA020200D10904816170470AB1D7
:100D2000816170470904FBE7014880687047000053
:100D300004000020024881680278114481607047F5
:100D4000040000200B4810B5016841F400710160F7
:100D5000016841F480610160016841F480710160C3
:100D6000032000F06FF8002000F006F800F024F8EF
:100D7000002010BD003C024070B50D4D04464FF4FC
:100D80007A712878B1FBF0F00A490968B1FBF0F0FC
:100D900000F0F2FA48B9102C07D200222146501E6A
:100DA00000F030F800206C6070BD012070BD0000C4
:100DB00004000020100000200A4808B5016841F432
:100DC00080410160006800F4804000900548001FE9
:100DD000016841F080510160006800F0805000908F
:100DE00008BD000044380240002809DB00F01F0263
:100DF000012191404009800000F1E020C0F800117D
:100E000070470000F0B40E4B1B680C46C3F302237E
:100E1000C3F10705042D00D90425191D072901D2A6
:100E2000002300E0DB1E012606FA05F1491E2140E1
:100E300099409E40761E16403143F0BC00F0BDBB89
:100E40000CED00E0064900F0070208684FF6FF03CA
:100E5000184040EA0220034A10430860704700002F
:100E60000CED00E00000FA052DE9F0470E46050004
:100E700065D0DFF81481D8F80000F7B200F00F0059
:100E8000B04207D288F80070D8F8000000F00F00D8
:100E9000B04254D128683D4C810712D5400703D594
:100EA000206840F4E05020602878000703D52068CF
:100EB00040F4604020602068A96820F0F0000843FA
:100EC00020602878C0072DD030496868083901288B
:100ED00012D0022813D0032811D0096889070029ED
:100EE0002DDA216821F0030101432160FFF71CFF87
:100EF000814641F2883A0EE009688903EFE7096804
:100F00008901ECE7FFF710FFA0EB0901514502D979
:100F10000320BDE8F0872068696800F00C00B0EBA2
:100F2000810FEFD1D8F80010404601F00F01B14217
:100F300007D90770006800F00F00B04201D001200F
:100F4000E7E72878400705D52068E96820F4E050F5
:100F5000084320602878000706D52068296920F416
:100F6000604040EAC100206000F018F82168084A9B
:100F7000C1F30311515CC840064908600648006887
:100F8000FFF7FAFE0020C4E7003C024008380240A8
:100F90009E2500081000002008000020224810B5FF
:100FA000006810F00C02214815D02149042A11D004
:100FB0001D4C241F082A0FD00C2A0CD1226823684C
:100FC00002F03F025B0221D52068C0F38810A0FB2D
:100FD000010120E0084610BD2268236802F03F02AC
:100FE0005B0205D52068C0F38810A0FB010104E076
:100FF0002168C1F38811A1FB00010023FFF7FEF86F
:101000002168C1F30141491C49000AE02168C1F38C
:101010008811A1FB00010023FFF7F0F82168C1F35C
:101020000271B0FBF1F010BD083802400024F4005A
:10103000001BB7002DE9F84F0546DFF828B300780C
:10104000ABF10407C007A7F1040451D0DBF800108E
:101050005846C1F3810101290FD00168C1F3810114
:10106000022902D13968490207D40068C0F381001F
:10107000032809D13868400206D52068800337D597
:101080006868002872D033E06868B0F5803F10D0FF
:10109000B0F5A02F206810D020F4803020602068A8
:1010A00020F4802020606868A8B1FFF73DFE064666
:1010B0000DE0206840F48030F4E740F480202060A8
:1010C000F7E700BFFFF730FE801B642878D8206860
:1010D0008003F7D50CE0FFF727FE064605E000BFCA
:1010E000FFF722FE801B6428F0D820688003F7D425
:1010F0002878DFF8749280074FF0000A46D5DBF8B5
:101100000010584611F00C0F0FD00168C1F3810197
:10111000022902D13968490207D50068C0F381006D
:10112000032809D13868400206D42068800715D505
:10113000E86801281AD111E0E868C0B10120C9F8B7
:101140000000FFF7F1FD064605E000BFFFF7ECFDEC
:10115000801B0228BAD820688007F7D52068296943
:1011600020F0F80040EAC10020600FE0F7E0C9F885
:1011700000A0FFF7D9FD064605E000BFFFF7D4FD4C
:10118000801B02281CD820688007F7D42878000725
:1011900027D5DFF8D0817548696908F16C0881B1FD
:1011A00001210160FFF7C0FD064604E0FFF7BCFD2A
:1011B000801B022804D8D8F800008007F6D510E07C
:1011C00089E0C0F800A0FFF7AFFD064605E000BFCC
:1011D000FFF7AAFD801B02287DD8D8F80000800701
:1011E000F6D42878400769D55E484FF000083830BB
:1011F0000068C0000BD45B483830016841F0805172
:10120000016000684FF0010800F080500090584ED7
:101210003068C00511D4306840F480703060FFF74A
:1012200083FD009006E000BFFFF77EFD0099401AA5
:10123000022850D83068C005F6D54A4EA8686836EE
:1012400001280FD00528306810D020F00100306050
:10125000306820F004003060A868B8B1FFF764FD82
:1012600000900FE0306840F00100F4E740F0040027
:101270003060F7E7FFF758FD0099411A41F28830D6
:10128000814264D830688007F4D50EE0FFF74CFD4A
:10129000009007E0FFF748FD0099411A41F28830BD
:1012A000814254D830688007F4D4B8F1000F05D0DB
:1012B0002C483830016821F080510160A869A8B33A
:1012C000DBF80010C1F38101022948D00228C9F8D7
:1012D00060A005D000E03AE0FFF726FD054639E0C2
:1012E000FFF722FD064604E0FFF71EFD801B0228E3
:1012F0002DD820688001F7D4F5E907010843E96893
:101300001C4A490802EB0141AA6841EA82110843DC
:10131000297C40EA0160297D40EA017038600120A3
:10132000C9F86000FFF700FD054606E015E000BFC4
:10133000FFF7FAFC401B022809D820688001F7D586
:101340000BE000BFFFF7F0FC401B022802D903208E
:10135000BDE8F88F20688001F4D40020F8E7012070
:10136000F6E700000838024000004742800E47427E
:10137000007000400000FFFF10B5401EB0F1807FFC
:1013800001D3012010BD4FF0E02460610F216017F0
:1013900000F013F90020A06107202061002010BD9B
:1013A000FEE700000F4810B50D49016002214160C1
:1013B00000214FF460228160C0E903124FF48002E3
:1013C0004261017641768176C17601774177FFF7F8
:1013D00064FA002803D0BDE81040FEF7EEBF10BD50
:1013E00000640040680200200F4810B50D490160FC
:1013F0000221416000214FF460228160C0E90312A4
:101400004FF480024261017641768176C1760177A0
:101410004177FFF742FA002803D0BDE81040FEF7FD
:10142000CCBF10BD006800409002002030B587B0EE
:1014300014216846FEF72CFF19480024016841F08A
:1014400080010160016801F080010591016841F0AF
:1014500004010160016801F004010591016841F097
:1014600002010160016801F002010591016841F08B
:101470000101016000680B4D00F0010005900022A1
:1014800001212846FFF74BFC01210091CDE9011411
:10149000694628460394FFF767FB07B030BD00009C
:1014A0003038024000080240FEE7704742880B4691
:1014B000212A03D8011D1846FEF7D1BE704730B56A
:1014C00002790A700123002211E0082A12D2C518FD
:1014D00001EBC2046D681B1D44F8015F9BB2C51887
:1014E0002D1D65606488521C23449BB2D2B20C78D7
:1014F0009442EAD830BD108011F8020B907031F898
:101500000109093090809160704770477047FFF77C
:1015100011BC000030B593B034216846FEF7B8FE28
:1015200014210DA8FEF7B4FE1A480025016841F009
:1015300080510160006800F08050129016480168E8
:1015400041F4404101600068022400F440401290E0
:1015500001200090000401908001CDE906400620A2
:101560000890A820CDE909040720CDE90B046846BE
:10157000FFF760FD0DA90F2081E831004FF4A05066
:101580001090E002119005210DA8FFF76DFC13B03B
:1015900030BD00004038024000700040054801683E
:1015A00041F47001016003494FF000608039086028
:1015B0007047000088ED00E0FEE70907090E0028EB
:1015C00004DB00F1E02080F80014704700F00F0009
:1015D00000F1E02080F8141D704702E008C8121FD7
:1015E00008C1002AFAD170477047002001E001C10C
:1015F000121F002AFBD170472DE9F04107460878F9
:101600000E46052874D1B179341D082970D8002000
:101610000AE000BF04EB800232F8033F52881A440C
:10162000FF2AF3D8401CC0B28142F3D8B14A1068F7
:10163000FAE000BFA0F10C052B88BB427ED12A1D29
:1016400068689CE0737810F80CCCA0F10C07634537
:1016500075D178880028208801D088B377E028B138
:10166000B86800F059FE0020B86070E000231A4608
:10167000184602267D7809E0D7F804C006EB8008FA
:10168000401C3CF808C0C0B263449BB28542F3D80A
:10169000002007E004EB8005401CB5F80550C0B2FF
:1016A0002A4492B28142F5D8934206D01146B868D6
:1016B00000F0C2FEB86000285ED00026354613E078
:1016C00017E0B868821904EB85008046B0F8051071
:1016D000B0F8030000F0ECFD401C38D0B8F805006D
:1016E0006D1C304486B2EDB2A078A842E9D82EE055
:1016F000FDE00020024607E004EB8203521CB3F831
:101700000530D2B2184480B29142F5D800F024FEE0
:10171000B860002830D00026354615E0B868821938
:1017200004EB85008046B0F80510B0F8030000F027
:10173000BFFD401C0BD0B8F8050001E073E01DE0D0
:1017400030446D1C86B2EDB2A078A842E6D8A078ED
:101750007978884207D078708100786800F06CFE54
:101760007860002808D0208878807878E11C820092
:101770007868FEF774FD0320BDE8F08100689042B0
:101780007FF460AF142000F0E7FD071EF4D07078FE
:10179000387020887880A0787870800000F0DCFDB8
:1017A00078600028E8D079788A00E11CFEF757FDC0
:1017B00055F8081F07F10C0045F80409C0E900516D
:1017C0000860208868BB00210846A27808E000BFB6
:1017D00004EB8003401CB3F80530C0B2194489B251
:1017E0008242F5D8084600F0B7FDB8600028C3D0A3
:1017F0000026354612E0B868821904EB8500804661
:10180000B0F80510B0F8030000F052FD401C08D0FD
:10181000B8F805006D1C304486B2EDB2A078A8423D
:10182000E9D80220A8E7006890427FF403AF1420B3
:1018300000F092FD051E9FD0281D6860A8602D490C
:101840002F8008304A684860C0E9001210601420F8
:1018500000F082FD071E8FD0707838702088788065
:10186000A0787870800000F077FD7860002883D041
:1018700079788A00E11CFEF7F2FC55F8081F07F1A1
:101880000C0045F80409C0E900510860208860BBDD
:1018900000210846A27807E004EB8003401CB3F85F
:1018A0000530C0B2194489B28242F5D8084600F02A
:1018B00053FDB8600028B5D00026354612E0B86860
:1018C000821904EB85008046B0F80510B0F80300DB
:1018D00000F0EEFC401C08D0B8F805006D1C304448
:1018E00086B2EDB2A078A842E9D8012044E70020F2
:1018F00042E7000030020020024948600121817364
:10190000704700005402002038B504460020ADF8AE
:1019100000002189091D89B294292BD845F65A2146
:10192000154D218089B229802946A2884A80A17953
:101930002971687128462189C1802289901F8228D7
:1019400005DC05F10800921FE168FEF788FC20899C
:10195000801C84B2A01EC1B2A81C00F04DF9ADF8E5
:1019600000002819BDF800100180A41CA0B2024993
:1019700000F010F838BD0000D00D002070B50C4606
:10198000054603E014F8010B00F084FA6D1EADB2B9
:10199000F8D270BD0A460146104600F06DB800004E
:1019A00000B58BB000200121CDE90601089100901F
:1019B0000190029003900590049069460E48FEF74E
:1019C00073FD0D48FFF79CF802210B48FEF7F6FC6B
:1019D0000E2009900590084869462830FEF764FDFE
:1019E00005482830FFF78CF8034802212830FEF71D
:1019F000E5FC0BB000BD00006802002010B500F04F
:101A000011F80446401E7F2809D22146044800F000
:101A10001BF82046BDE810400149FFF7AFBF10BDDD
:101A200084070020074B00209988DA88914204D966
:101A300018891044A0EB010002E002D2A2EB0100E1
:101A400080B270471C08002070B503460020094A88
:101A50000DE095881468645D1C5494881589641C95
:101A6000B4FBF5F605FB1644401C948080B2884216
:101A7000EFD370BD1C08002010B50024024A00F00E
:101A800073F8204610BD0000A80800202DE9F041A1
:101A90002A4800F059F82A4D021E28804CD0274CC5
:101AA000AE1C4FF4A0682189A088082AA1EB000190
:101AB0008FB21FD92168082F0BD201443A46A81CC7
:101AC000FEF7CDFBC7F10802F0192168FEF7C7FB4E
:101AD00005E00844016845F8021F40686860184A3C
:101AE0000823921C41461748FEF746FCA08821892E
:101AF00008301CE021689742014409D210483A4658
:101B0000801CFEF7ACFB28882168C21BF01901E09D
:101B10000B48801CFEF7A3FB094A2B88921C414608
:101B20000848FEF729FCA088298808442189B0FBD1
:101B3000F1F201FB1200A080BDE8F081A8080020AE
:101B40001402002068020020014600208A88CB8809
:101B50009A4204D908891844A0EB020002E002D29C
:101B6000A3EB020080B2704770B5034600200DE081
:101B7000D68815681C5CAC55D4881589641CB4FBE8
:101B8000F5F605FB1644401CD48080B28842EFD3A2
:101B900070BD2DE9F0410F460421117050700120F5
:101BA0005080387814461071002520E007EBC506F8
:101BB0006188B6F803000844001D802803D900207E
:101BC0006080BDE8F081201D014456F8012F0A60B5
:101BD0006188091D8BB26380728871681844FEF7B2
:101BE0003EFB608871886D1C08446080EDB23878D7
:101BF000A842DBD8E5E7000010B54FF6FF72094BAD
:101C000009E000BF10F8014B84EA122433F81440B5
:101C100084EA022292B2491EC9B2F3D2D04380B202
:101C200010BD0000140000202DE9F05F8946014638
:101C300099F800004FF0000A062849D126480568A7
:101C400044E000BFA5F10C0422888A423DD1002661
:101C5000B346271D2AE000BF09EB060222E000BFC1
:101C6000137910F80C1CA0F10C088B4219D10AF161
:101C7000010101F0FF0A03C841600860D8F80400C0
:101C800000F04AFBC8F804B0B8F8020028B9D8F848
:101C9000080000F041FBC8F808B0404600F03CFBEB
:101CA00002E00068B842DBD1761CF6B2B9F8020057
:101CB000B0426068D0D8B8420AD1D5E9000141608D
:101CC0000860204600F028FB02E02D688542B9D16B
:101CD0005046BDE8F09F0000300200202DE9F041A1
:101CE000154607222A706970012169801D4A00216A
:101CF0002971116832E000BFA1F10C0423888342EE
:101D00002BD1012054F8047F22E000BF2979A7F1EC
:101D10000C06491C2A18297131781171401C80B2B7
:101D2000291872888A80801C80B22A187178401C19
:101D300011711FFA80F870787168820005EB080055
:101D4000001DFEF78CFA71783F6808EB810080B2C5
:101D5000A742DBD16880BDE8F08109689142CBD110
:101D6000F9E700003002002000262DED028B3546F9
:101D70003446FEF7E7FFFFF7CDFBFFF757FBFFF712
:101D800011FBFFF731FBFFF70BFEFEF7E1FA00F066
:101D900049F99FED148A144FFEF7C6FF801B0528F2
:101DA00006D9FFF72BFEFFF771FEFEF7BDFF0646D3
:101DB000FEF7BAFF401B642807D9B0EE480A162088
:101DC00000F0CEFBFEF7B0FF0546FEF7ADFF001BAF
:101DD0006428E1D904213846FEF79AFFFEF7A4FFF4
:101DE0000446D9E76666A2410010024010B50422FD
:101DF0002349002000F034FA21490422091D10462D
:101E000000F02EFA1E4901220831082000F028FABD
:101E10001B49012209310A2000F022FA1849012247
:101E20000A310C2000F01CFA154901220B310E205A
:101E300000F016FA124901220C31100300F010FADA
:101E40000F4901220D31122000F00AFA0C49042238
:101E50001031162000F004FA0949042214311A2026
:101E600000F0FEF90649042218311E2000F0F8F9AE
:101E7000034904221C31BDE81040222000F0F0B9D3
:101E80006407002010B5029C837181800281C460C8
:101E900010BD000010B52C4C214694F88C20B1F8F0
:101EA0008A1022B1012A0CD0022A47D123E05A28F5
:101EB00044D1605434F88A0F401C20800120E07027
:101EC0003FE06054B4F88A00401C80B2A4F88A0055
:101ED000082837D194F88D0001282FD1E088802878
:101EE0002CD84FF6FF70A4F88E00A4F890000220C2
:101EF00084F88C0026E06054B4F88A00401C81B25B
:101F0000A4F88A1094F88D0001281BD1E088021DE6
:101F1000914217D3C1B2A01CFFF76EFEA4F8900047
:101F200094F88D10012909D10749B4F88A20891E37
:101F300011440988884201D100F008F8002024F8F3
:101F40008A0FA070002010BD5A0E002010B518484E
:101F500088B000F1080490F88D200179C388012A27
:101F600007D18DF806104088ADF80400ADF80830B0
:101F700003949DF806100F4808290DD2DFE801F000
:101F80000C040E12121212124168BDF804208A814C
:101F9000C26882600020887308B010BD0399096888
:101FA0008160F9E704AA0121684600F04FF8F3E7E1
:101FB0005A0E00205402002013464A1FB2F5FE7F3D
:101FC00004D20A460146581CFEF749B97047000082
:101FD00030B5134943680A68134402F10804984273
:101FE0000DD05D885DB94D68AB4208D08D689D42CB
:101FF00000D188605D6845605B68851A1D51836803
:10200000134483420BD05D88002D08D18D68854232
:1020100000D18B60416859604068991A015130BD08
:102020003C02002010B5FFF7E1FE00F0FDF9064983
:10203000012088730846FFF75FFC0348803800F1F1
:102040009C01C86010BD00003807002000B589B0B1
:10205000012911D000290DD18188118081799170D9
:10206000C1680978D170C168B1F801109180C06869
:10207000C01C906009B000BD01A9001D00F010F85F
:10208000039800909DF80630BDF80820BDF80410B4
:1020900004A8FFF7F7FE04A8FFF736FCEAE7000004
:1020A0002DE9F34F81786C4D0026C91EC3B004465C
:1020B0004FF0020A4FF0010805F1040905297DD20D
:1020C000DFE801F0033469A2B300032028706E80BA
:1020D000A0881AAA801F81B2A068FFF76DFF11A91E
:1020E0001AA8FFF7E3F900260DF1440B13E0698805
:1020F0000BEB860701EB0902B7F80310B7F80100F4
:1021000000F0D6F8401C0FD06888B7F80310761C92
:1021100008446880F6B29DF84400B042E7D800BF9A
:102120009DF86900687086E0832032E00420287002
:10213000A5F802A0AE80A0881AAA801F81B2A0686C
:10214000FFF73AFF69461AA8FFF7B9F90026E946F2
:1021500019E000BF09EBC607B7F80320D7F8051050
:10216000B7F8010000F0BEF8401C11D02878842890
:1021700002D03A4981F80080A888B7F80310761C8D
:102180000844A880F6B29DF80000B042E2D8C7E744
:102190008420287033E005278DF86870A0881AAA7B
:1021A000801F81B2A068FFF707FF20881AA9FFF7F8
:1021B00023FA4FF0850B00B32F7000E043E06E80F0
:1021C0001BAF002615E0698807EB860001EB0902CA
:1021D0003D90B0F80510B0F8030000F069F8401C1D
:1021E0000BD03D986988761CB0F80500F6B208441B
:1021F0006880B878B042E6D892E785F800B0A5F8D4
:10220000028085F804A08BE7A0881AAA801F81B2FB
:10221000A068FFF7D1FE06202870A5F8028020886C
:102220001AA9FFF701FD28717AE7A0680A4A4178E8
:102230002088FFF753FD20880749449AFFF75BF990
:1022400045B0BDE8F08FA068007880302870404627
:10225000A5F80280E7E700005009002028020020CE
:1022600070B5114D114C2B78012B09D15FF0000393
:1022700044F823505B1C9BB2FF2BF9D300232B7037
:10228000FF2802D28318FF2B02D94FF0FF3070BD18
:10229000002305E0CD18C6185B1C44F826509BB2FD
:1022A0009342F7D3002070BD38020020D4090020EB
:1022B00030B5FF2802D24318FF2B02D94FF0FF3070
:1022C00030BD0023064C06E0C51854F825502D7883
:1022D000D5545B1C9BB28B42F6D3002030BD00006E
:1022E000D409002070B5FF2802D28318FF2B02D931
:1022F0004FF0FF3070BD0023064C06E0C618CD5CE1
:1023000054F826605B1C9BB235709342F6D30020D4
:1023100070BD0000D4090020002819D00D490A68BA
:10232000904215D34B68984212D2002320F80A3C01
:102330004FF4F55320F80C3D8B68984200D288602A
:102340004368821A9A1A0B699A1A0A61FFF740BE0B
:10235000704700003C0200202DE9F04700285AD0C9
:102360003049C01C20F00302CF68BA4258D8082A6E
:1023700000D20822D1F808C00C68BD1AACEB0403E7
:102380004CE0E0184688E6BB4668F61A0C3E9642DA
:1023900043D3456802F11406ED1A0C3D4FF00109D4
:1023A0004FF4F55AB5422DD39E180C36A5194FF0AF
:1023B0000008A5F800A0A5F80280D0F80480C5E9BF
:1023C00001834660A0F802906B680C37BB4202D0D4
:1023D00004F108055E510B691A440C320A614B691D
:1023E000934200D24A61A0F800A0604512D18A68E9
:1023F00053887BB14B689A420CD0526822448A6061
:10240000F6E70AE0A0F802904268031BD21A0B69B3
:102410001A44E3E70C30BDE8F08743689D42B0D82A
:102420000020F8E73C0200200249A1F2FF3000F052
:1024300061B80000B70600202DE9F041C91C21F069
:1024400003042B490546D1F80CC0644502D900208D
:10245000BDE8F08184B195B10B689D420AD348680C
:10246000854207D2A5F10C02D71A5068C61B0C3E54
:10247000A64209D12846EBE7FFF74EFFE7E72046E3
:10248000BDE8F041FFF768BF04F11400B0421DD26F
:10249000301B0E693C44301A0C34086118194FF493
:1024A000F5560680002646805668C0E901675460EC
:1024B00042680CF10C0C624501D00833D4508A6894
:1024C000904200D28860FFF783FDD3E72046FFF7F4
:1024D00043FF070009D0A64200D2344622462946CF
:1024E000FDF7BDFE2846FFF717FF3846B0E70000AE
:1024F0003C020020C01C10B521F0030120F00300B5
:10250000182919D9A1F11802824215D30B4B091AC7
:102510001839D9604FF4F5541860048000220C314A
:10252000C0E901124280426802445A6014800124CA
:10253000548051609160986010BD00003C02002002
:1025400000B585B0816800918378828840F60121CA
:1025500001A8FFF797FC01A8FFF7D6F905B000BD69
:1025600001B501212DED020BB6B06A468DF884103D
:10257000ADF885000420ADF8870036A8CDF88900B5
:1025800021A90020FFF705FB32AA694640F6012089
:10259000FEF7B1FF32A8FFF7D3FF39B000BD00004E
:1025A0000000000000000102030406070809000003
:1025B000D025000800000020680200000803000881
:1025C000EC2700086802002088140000EA150008C3
:1025D00051420192104324F410FF21104220633035
:1025E0008440A550C660E770088129914AA16BB16B
:1025F0008CC1ADD1CEE1EFF1311210027332522213
:10260000B5529442F772D662399318837BB35AA3BA
:10261000BDD39CC3FFF3DEE36224433420040114E2
:10262000E664C774A44485546AA54BB5288509950A
:10263000EEE5CFF5ACC58DD55336722611163006B2
:10264000D776F6669556B4465BB77AA7199738875A
:10265000DFF7FEE79DD7BCC7C448E5588668A77872
:102660004008611802282338CCC9EDD98EE9AFF9AA
:10267000488969990AA92BB9F55AD44AB77A966A52
:10268000711A500A333A122AFDDBDCCBBFFB9EEBFA
:10269000799B588B3BBB1AABA66C877CE44CC55C22
:1026A000222C033C600C411CAEED8FFDECCDCDDD4A
:1026B0002AAD0BBD688D499D977EB66ED55EF44EF2
:1026C000133E322E511E700E9FFFBEEFDDDFFCCF9A
:1026D0001BBF3AAF599F788F20148891A981CAB146
:1026E000EBA10CD12DC14EF16FE18010A100ED1DC9
:1026F000C230E3200450254046706760B983989348
:10270000FBA3DAB33DC31CD37FE35EF3B1029012A7
:10271000F322D2323542145277625672EAB5CBA513
:10272000A89589856EF54FE52CD50DC5E234C324F7
:10273000A01481046674476424540544DBA7FAB7E7
:102740009987B8975FE77EF71DC73CD7D326F23647
:102750009106B01657667676154634564CD96DC933
:102760000EF92FE9C899E9898AB9ABA94458654897
:1027700006782768C018E1088238A3287DCB5CDB87
:102780003FEB1EFBF98BD89BBBAB9ABB754A545AE7
:10279000376A167AF10AD01AB32A923A2EFD0FED53
:1027A0006CDD4DCDAABD8BADE89DC98D267C076C37
:1027B000645C454CA23C832CE01CC10C1FEF3EFF27
:1027C0005DCF7CDF9BAFBABFD98FF89F176E367E87
:1027D000554E745E932EB23ED10EF01E0A1C30028E
:0C27E000002030020020010313E8030079
:04000005080001C529
:00000001FF
